:020000040800F2
:10000000280C0020310200083F2C00088121000844
:100010003D2A0008B1080008BD35000800000000B6
:100020000000000000000000000000002D2F00086C
:100030008109000800000000412C0008B9300008C8
:100040004B0200084B0200084B0200084B0200085C
:100050004B0200084B0200084B0200084B0200084C
:100060004B0200084B0200084B0200084B0200083C
:100070004B0200084B0200084B0200084B0200082C
:100080004B0200084B0200084B0200084B0200081C
:100090004B0200084B0200084B0200084B0200080C
:1000A0004B0200084B0200084B0200084B020008FC
:1000B0004B0200084B0200084B0200084B020008EC
:1000C0004B0200084B0200084B0200084B020008DC
:1000D0004B0200084B0200084B0200084B020008CC
:1000E0004B0200084B0200084B0200084B020008BC
:1000F0004B0200084B0200084B0200084B020008AC
:100100004B0200084B0200084B0200084B0200089B
:100110004B0200084B0200084B0200084B0200088B
:100120004B0200084B0200084B0200084B0200087B
:100130004B0200084B0200084B0200084B0200086B
:100140004B0200084B0200084B0200084B0200085B
:100150004B0200084B0200084B0200084B0200084B
:100160004B0200084B0200084B0200084B0200083B
:100170004B0200084B0200084B0200080000000080
:100180004B0200084B02000800F002F800F041F8B2
:100190000AA090E8000C82448344AAF10107DA45E2
:1001A00001D100F036F8AFF2090EBAE80F0013F0F3
:1001B000010F18BFFB1A43F001031847983D0000D8
:1001C000B83D0000103A24BF78C878C1FAD8520769
:1001D00024BF30C830C144BF04680C6070470000C1
:1001E0000023002400250026103A28BF78C1FBD840
:1001F000520728BF30C148BF0B607047752900F017
:10020000C980002070471FB503F052FA1FBD10B51A
:1002100010BD00F083FA1146FFF7F5FF03F0E6F991
:1002200000F0A1FA03B4FFF7F2FF03BC00F0A4FA58
:100230000948804709480047FEE7FEE7FEE7FEE77A
:10024000FEE7FEE7FEE7FEE7FEE7FEE704480549B6
:10025000054A064B7047000051310008890100082B
:1002600028060020280C002028080020280800204C
:1002700053EA020C00F069802DE9F04B4FF00006C4
:10028000002B1FBFB3FA83F503FA05F424FA05F631
:100290005E4012BF1643B2FA82F502FA05F4C5F1C8
:1002A00020051EBF22FA05FC44EA0C04203556EA5C
:1002B000044C4FEA144418BF641C4FF000084FF080
:1002C0000009904271EB030C39D3002919BFB1FA30
:1002D00081F701FA07F6B0FA80F700FA07F6C7F1DE
:1002E00020071EBF20FA07FC46EA0C062037B6FBA3
:1002F000F4FCA7EB0507103F07F01F0BCBF120061E
:100300000CFA0BFB2CFA06F644BFB3460026202F4E
:10031000A4BF5E464FF0000B5BEA060C08BF4FF02F
:10032000010B19EB0B09ABFB027C48EB0608C01B69
:1003300006FB02CC0BFB03CC71EB0C01C1E70B46B7
:10034000024641464846BDE8F08B13B54FF0000029
:100350004FF00001AFF30080BDE81C407047000083
:100360000FB41CB50C0007AA009001D02044401E19
:10037000074B7B4469460190069800F088F9002CF1
:1003800003D06946002000F095F91CBC5DF814FB11
:10039000490300002DE9F041064600241068752944
:1003A000314616A510D0AFF30080002802DA404293
:1003B00013A507E031688A0701D512A502E04907B5
:1003C00004D511A5012401E0AFF3008000210A2229
:1003D00006F1240709E0B0FBF2FCB0FBF2F302FBEC
:1003E0001C00303078541846491C0028F3D12346AD
:1003F0002A463046BDE8F04100F0EAB800000000AF
:100400002D0000002B000000200000002DE9F04727
:100410004FF0000A89460446C0F820A02046E16853
:100420008847002876D0252806D0D4E901219047B6
:10043000206A401C2062F1E7E168204600268847D8
:10044000C4F81CA005460027C4F818A02A2D09D01E
:10045000284603F0C4F838B304EB8708303DC8F8E9
:10046000185019E059F8041B204604EB87029161EB
:10047000E1688847012F054618D1E069002820DA95
:1004800026F020061DE0D8F8180000EB800005EBF0
:1004900040003038C8F818002046E1688847054613
:1004A00003F09DF80028EED1012F0AD02E2D08D19F
:1004B0002046E16888477F1C0546022F46F020064B
:1004C000C4DBA069002803DA404246F00106A061BF
:1004D000F00701D026F010066C2D0AD0682D08D048
:1004E0004C2D39D06A2D35D0742D35D07A2D33D09E
:1004F00016E0E1682F4620468847B84205460AD1F3
:100500006C2F27D04FF48060E1680643204688476F
:10051000054605E027E06C2F1AD04FF480700643A3
:100520000DB3A5F14100192802D8203546F4006624
:100530004A462946204626604E46FFF75FFE80B1B8
:1005400001280BD0F61D26F0070000F1080965E729
:100550004020E4E78020D7E70020D5E706F1040932
:100560005CE7284661E7206ABDE8F08702F0FF03F8
:1005700043EA032242EA024200F0ABB84FF0000225
:1005800000B5134694469646203922BFA0E80C5089
:10059000A0E80C50B1F12001BFF4F7AF090728BF64
:1005A000A0E80C5048BF0CC05DF804EB890028BFE0
:1005B00040F8042B08BF704748BF20F8022B11F009
:1005C000804F18BF00F8012B704770477047704785
:1005D0002DE9F0470D4699469246044600F124085D
:1005E0000168880604D5E06921F01001216000E06F
:1005F0000120A84201DD471B00E00027A1697A190C
:1006000002EB0900081AA0612078C00602D4204637
:10061000AFF30080002608E0D4E901211AF80600B3
:100620009047206A401C761C20624E45F4DB2078FF
:10063000C0060AD52046AFF3008006E0D4E90121C8
:1006400030209047206A401C2062381EA7F1010725
:10065000F4DC07E0D4E9012118F805009047206A8E
:10066000401C2062281EA5F10105F3DC2046AFF3F3
:1006700000802078000602D50220BDE8F087012026
:10068000FBE7000001694A1C02610878704700B569
:100690008FB0CDE901310021059105497944CDE9BB
:1006A000031011466846FFF7B1FE0FB000BD000011
:1006B000E5FFFFFF0A6802F8010B0A607047D1E905
:1006C00000239A4202D2531C0B60107070474FF007
:1006D00000020429C0F0128010F0030C3FF450AF68
:1006E000CCF1040CBCF1020F18BF00F8012BA8BF1D
:1006F00020F8022BA1EB0C01FFF742BF5FEAC17C9F
:1007000024BF00F8012B00F8012B48BF00F8012B93
:100710007047000000487047C40500207546FFF789
:10072000F9FFAE4605006946534620F007008546AE
:1007300018B020B5FFF78AFDBDE820404FF0000655
:100740004FF000074FF000084FF0000B21F00701B9
:10075000AC46ACE8C009ACE8C009ACE8C009ACE8FC
:10076000C0098D46704710B50446AFF3008020469F
:10077000BDE81040FFF756BD01491820ABBEFEE7AB
:100780002600020070470000464910B54A6822F46E
:1007900040324A604A6843681A434A6001684A68BE
:1007A00022F480724A6001684A68036942EA0322BF
:1007B0004A6001684A6822F040724A6001684A68EB
:1007C00083681A434A6001688A6822F400628A607A
:1007D00001688A68C3681A438A60816A6FF0706230
:1007E000D14201688A6822F070628A6001688A6872
:1007F0000CD0836A1A438A6001688A6822F04052EA
:100800008A6001688A68C36A1A4301E022F0405294
:100810008A6001688A6822F002028A6001688A6838
:10082000037E42EA43028A6090F8201000290168A2
:100830004A680FD042F400624A6001684A6822F4B4
:1008400060424A6001684A68174C436A04EB4333CC
:100850001A4301E022F400624A600168CA6A22F485
:100860007002CA620168CA6A838B104C04EB03539E
:100870001A43CA6201688A6822F400728A600168B9
:100880008A6890F8303042EA43228A6001688A68B8
:1008900022F480628A6001688A68406942EA8020A6
:1008A000886010BD0023014000E0FFFF0000F0FF62
:1008B000FEE7000010B502F0C4F90021084602F07E
:1008C000F5F90122034904A002F0FAFABDE810404C
:1008D00002F00ABB9000002043616C696220410075
:1008E000254A70B502EB0012C0EB0010947AD36871
:1008F00032F814401B1BD360937A22F81310D3688C
:100900001944D160937A05215B1CB3FBF1F401FB20
:1009100014339372D268194BB2FBF1F1174A89B2C2
:1009200002EB4002783310880F24884201D81888DF
:1009300070BD908B884201D3988B70BD0020641EDF
:1009400002EB400532F810606D88B1420FD8A94221
:100950000DD333F8102003EB4000491B4088121AD6
:100960005143721BB1FBF2F1084480B270BD401CD0
:10097000A042E5D3002070BD84050020263E00087B
:10098000704772B6FEE7000078B50024009490F836
:100990003C20012A19D0012280F83C200A68072354
:1009A0000568092A13D9EE680A3A02EB420293401D
:1009B0009E43EE600B788A680A3B03EB43039A4040
:1009C0000368DD682A43DA6010E0022078BD2E69F2
:1009D00002EB420293409E432E610B788A6803EB40
:1009E00043039A4003681D692A431A614A681F231A
:1009F000072A13D205686E6B521E02EB82029340E7
:100A00009E436E630B790A885B1E92B203EB8303ED
:100A10009A4003685D6B2A435A6327E005680D2AF4
:100A200012D22E6BD21F02EB820293409E432E63A2
:100A30000B790A88DB1F92B203EB83039A400368A9
:100A40001D6B2A431A6311E0EE6A0D3A02EB820233
:100A500093409E43EE620B790A880D3B92B203EB02
:100A600083039A400368DD6A2A43DA62164B0568FD
:100A7000144A9D4206D10D68122D03D1556845F4E4
:100A80008005556005689D4218D10B68102B01D078
:100A9000112B13D1536843F40003536009681029E4
:100AA0000CD10A490A4A0968B1FBF2F101EB810154
:100AB000490000E0491E00910029FBD180F83C402C
:100AC000002078BD0023014000200140C400002028
:100AD00040420F000068C06C704770B504004FF0D2
:100AE000000503D0206C002610B107E0012070BD86
:100AF000204600F01DF8666484F83C60206CC00657
:100B000010D4206C20F4885040F00200206420466D
:100B1000FFF73AFE6664206C20F0020040F001000E
:100B2000206400E0012584F83C60284670BD000088
:100B300010B586B0044614216846FFF71FFD114921
:100B4000206888421CD110480021026842F480725B
:100B50000260006800F4807005900B481438026849
:100B600042F001020260006800F001000590F020F0
:100B700000900320CDE901016946044800F00CF91A
:100B800006B010BD00200140443802400000024081
:100B90002DE9F041044600680D4681684FF00007DA
:100BA00049050BD58068C00508D5206C40F02000B1
:100BB000206484F83C700120BDE8F08100F0EEF97B
:100BC000064613E0681C11D025B100F0E7F9801B40
:100BD000A8420BD920680068800707D4206C40F039
:100BE0000400206484F83C700320E5E72068006876
:100BF0008007E7D521686FF012000860206C40F490
:100C0000007020642068816811F0405F13D1217E5C
:100C100089B9C16A11F4700F02D0806840050AD406
:100C2000206C20F480702064206CC00403D4206CFD
:100C300040F0010020640020BEE7000018B500214C
:100C4000009190F83C20012A07D0012280F83C2036
:100C500002689368DB0702D011E0022018BD936898
:100C600043F0010393602E4A2E4B1268B2FBF3F25D
:100C700002EB420200E0521E0092002AFBD1026801
:100C80009368DB0742D0036C40F20164A34343F452
:100C90008073036453685B0505D5036C23F400532C
:100CA00043F480530364036CDB0404D5436C23F0EA
:100CB0000603436400E0416480F83C101A496FF079
:100CC0002203136049680068CA06184906D08842A2
:100CD00024D1816811F0405F13D01FE08842F8D022
:100CE000134A904203D1D1F80423D206F1D0114A1D
:100CF000904213D1D1F8041301F01F011029E8D359
:100D00000CE0816841F08041816007E0016C41F0B6
:100D100010010164416C41F001014164002018BDE3
:100D2000C400002040420F00002301400020014089
:100D3000002101400022014090F83C1001290CD014
:100D4000012180F83C1001688A6822F001028A6063
:100D500001688968C90702D007E002207047016C6A
:100D600021F4885141F001010164002180F83C1018
:100D70000846704770B5044600F010F90546601C3F
:100D800002D004480078044400F008F9401BA04257
:100D9000FAD370BDB80000202DE9F84FDFF8BCA1F0
:100DA0000022012503264FF00F090AF1040BAAF1D6
:100DB000040E00BF0B6805FA02F42340A34270D171
:100DC0000F7907F00307012F01D0022F16D1876892
:100DD0004FEA420806FA08FC27EA0C07D1F80CC0D3
:100DE0000CFA08FC4CEA070CC0F808C04768A74397
:100DF0000C79C4F3001494403C4344600C79E44300
:100E0000A4070AD0C4684FEA420C06FA0CF7BC43A8
:100E10008F6807FA0CF72743C7600C7904F00304C6
:100E2000022C12D1D40800EB840CDCF820405707C8
:100E3000FF0E09FA07F824EA0804D1F8108008FA2E
:100E400007F848EA0408CCF8208004684FEA420C0E
:100E500006FA0CF7BC430F7907F0030707FA0CF703
:100E6000274307604C6814F4403F70D03C4C27681F
:100E700047F480472760246822F0030704F4804485
:100E80000094384C07EB040CDCF8084897074FEA4D
:100E9000177809FA08F7BC43334FB84202D100274C
:100EA00024E054E0314FB84201D101271EE0304F19
:100EB000B84201D1022719E02E4FB84201D10327D1
:100EC00014E02D4FB84201D104270FE02B4FB84258
:100ED00001D105270AE02A4FB84201D1062705E0D3
:100EE000284FB84201D1072700E0082707FA08F782
:100EF0002743CCF80878DAF800405746D1F804C008
:100F00009C435FEACC2C00D51C433C60DBF80040DE
:100F10005F46D1F804C09C435FEA8C2C00D51C438B
:100F20003C60DEF800407746D1F804C09C435FEA9D
:100F30008C3C00D51C433C60084F083F3C68D1F80E
:100F400004C09C435FEACC3C00D51C433C60521C6F
:100F5000102AFFF42FAFBDE8F88F0000083C0140D5
:100F600044380240003001400000024000040240CA
:100F700000080240000C0240001002400014024031
:100F800000180240001C02400069084000D0012007
:100F900070470AB1816170470904FBE70148806826
:100FA00070470000B800002070B5040025D094F808
:100FB0003D00002520B984F83C50204600F004FA9A
:100FC000242084F83D002068016821F001010160BF
:100FD0002068016841F4004101602068016821F443
:100FE0000041016000F04AFB4D4A6168914201D81E
:100FF0004C4900E04C49884201D2012070BD4B4968
:101000002368B0FBF1F15E6826F03F060E435E6098
:101010006368934206D94FF4967359434FF47A7339
:10102000B1FBF3F12368491C1E6A26F03F063143E9
:1010300019626168914210D84900401EB0FBF1F27C
:10104000521CC2F30B02042A01D2042022E0B0FB9E
:10105000F1F0401CC0F30B001CE0A268F2B301EBFE
:10106000C10303EB0116431EB3FBF6F35B1C43F411
:1010700080431B0549D092B301EBC10202EB011181
:10108000401EB0FBF1F0401CC0F30B0040F4804068
:1010900040F400402168CA694CF6FF739A4310433C
:1010A000C861D4E9071001432068026822F0C00239
:1010B00011430160D4E9030101432068826848F2CA
:1010C000FF339A4311438160D4E905010843216845
:1010D000CA6822F0FF021043C86001E00EE016E08B
:1010E0002068016841F0010101602564202084F836
:1010F0003D00256384F83E50002070BD01EB4106A1
:10110000431EB3FBF6F35B1CB3E70120C2E701EB20
:101110004101401EB0FBF1F0401CC0F30B00B7E7EB
:10112000A086010080841E0000093D0040420F009F
:101130002DE9FF4F81B089460446FFF72FFF054692
:1011400094F83D004FF0000820287DD1192301229A
:1011500050492046009501F0A5F8002874D194F874
:101160003C00012870D0012084F83C002068016810
:10117000C90703D1016841F00101016020680168DD
:1011800021F400610160242084F83D0000262664DB
:101190004148E0624FF0011B20272068016841F4BC
:1011A000807101600095002259462046049B01F0A1
:1011B00079F850B120680068C00502D54FF400707E
:1011C0002064032005B0BDE8F08F216809F0FE001F
:1011D0000861FFF7E3FE2168054648694969C0F3E5
:1011E0004000C1F380214FF0A00A0FE0FFF7D6FEC8
:1011F000411B0498814200D808B984F83DA02168B9
:1012000048694969C0F34000C1F3802194F83D204A
:10121000A02A02D008B90029E8D084F83D702068DF
:101220004169C943890716D4016841F4007101601E
:1012300020684169806919230122164920460095DA
:1012400001F030F8B8B900E021E084F83D7084F88E
:101250003C600020B6E7016841F40071016021683C
:101260006FF480604861192301220A4920460095E5
:1012700001F018F808B10120A4E7039808F101086B
:1012800080458AD384F83D7084F83C60F3E70220FF
:1012900098E70000020010000000FFFF2DE9F84F62
:1012A0001F4690468A460446DDF82890FFF776FEF2
:1012B000054694F83D0020287FD11923012240499A
:1012C0002046009500F0EEFF002876D194F83C000F
:1012D000012872D0012084F83C0020680168C90709
:1012E00003D1016841F0010101602068016821F427
:1012F00000610160212084F83D00102084F83E0048
:1013000000262664C4F824806785608D20852D48DA
:10131000E0622B464A465146204600F049FF90B90C
:10132000206841698069009036E02A464946204697
:1013300001F05EF850B1206C042804D120680168E7
:1013400041F4007101600120BDE8F88F606A2168F6
:1013500000780861606A401C6062618D491E618589
:10136000218D491E89B2218522685369DB435B07C1
:101370000BD451B100781061606A401C6062608DCE
:10138000401E6085208D401E20852A464946204605
:1013900000F05CFF0028CED1208D0028C5D154F884
:1013A0003D0B016841F400710160202004F81E0922
:1013B000E67766770020C7E7FFE70220C4E7000072
:1013C000020010000000FFFF10B586B00446142193
:1013D0006846FFF7D3F813492068884220D11248A5
:1013E0000021026842F002020260006800F0020080
:1013F0000590C02000901220CDE901010320039048
:101400000420049069460948FFF7C6FC06481030DE
:10141000016841F400110160006800F400100590BB
:1014200006B010BD005400403038024000040240B5
:10143000024881680278114481607047B80000203A
:101440000B4810B5016841F400710160016841F476
:1014500080610160016841F480710160032000F047
:1014600061F80F2000F006F800F024F8002010BD0D
:10147000003C024070B50D4D04464FF47A71287857
:10148000B1FBF0F00A490968B1FBF0F000F0FEFA98
:1014900048B9102C07D200222146501E00F022F835
:1014A00000206C6070BD012070BD0000B8000020FD
:1014B000C40000200A4808B5016841F48041016079
:1014C000006800F4804000900548001F016841F06A
:1014D00080510160006800F08050009008BD00005D
:1014E00044380240F0B40E4B1B680C46C3F3022391
:1014F000C3F10705042D00D90425191D072901D2C0
:10150000002300E0DB1E012606FA05F1491E2140FA
:1015100099409E40761E16403143F0BC02F04FB811
:101520000CED00E0064900F0070208684FF6FF03E3
:10153000184040EA0220034A104308607047000048
:101540000CED00E00000FA052DE9F0470E4605001D
:1015500065D0DFF81481D8F80000F7B200F007007A
:10156000B04207D288F80070D8F8000000F00700F9
:10157000B04254D128683D4C810712D5400703D5AD
:10158000206840F4E05020602878000703D52068E8
:1015900040F4604020602068A96820F0F000084313
:1015A00020602878C0072DD03049686808390128A4
:1015B00012D0022813D0032811D009688907002906
:1015C0002DDA216821F0030101432160FFF7E6FCD9
:1015D000814641F2883A0EE009688903EFE709681D
:1015E0008901ECE7FFF7DAFCA0EB0901514502D9CC
:1015F0000320BDE8F0872068696800F00C00B0EBBC
:10160000810FEFD1D8F80010404601F00701B14238
:1016100007D90770006800F00700B04201D0012030
:10162000E7E72878400705D52068E96820F4E0500E
:10163000084320602878000706D52068296920F42F
:10164000604040EAC100206000F038F82168084A94
:10165000C1F30311515CC8400649086006480068A0
:10166000FFF708FF0020C4E7003C024008380240B2
:10167000BC3E0008C4000020BC000020044805490E
:1016800000680968044AC1F38221515CC840704770
:10169000C400002008380240CC3E00080448054938
:1016A00000680968044AC1F34231515CC840704780
:1016B000C400002008380240CC3E0008154810B590
:1016C000006810F00C02144813D01449042A0FD0FB
:1016D000082A0ED10F4C241F2268236802F03F0213
:1016E0005B0207D52068C0F38810A0FB010106E06B
:1016F000084610BD2168C1F38811A1FB0001002339
:10170000FEF7B6FD2168C1F30141491C4900B0FB59
:10171000F1F010BD083802400024F40040787D014B
:101720002DE9F84F04006ED02078DFF84C93C00705
:10173000A9F104054AD009F104000168C1F381014F
:10174000012908D00068C0F3810002280AD1D9F825
:101750000000400206D52868800337D5606800285D
:10176000E1D033E06068B0F5803F10D0B0F5A02F35
:10177000286810D020F480302860286820F4802069
:1017800028606068A8B1FFF709FC06460DE02868EC
:1017900040F48030F4E740F480202860F7E700BF91
:1017A000FFF7FCFB801B642873D828688003F7D5FB
:1017B0000CE0FFF7F3FB064605E000BFFFF7EEFB8A
:1017C000801B6428F0D828688003F7D42078DFF8DD
:1017D000AC8280074FF0000A3ED5A748001D016883
:1017E00011F00C0F08D00068C0F3810002280BD163
:1017F000D9F80000400207D42868800716D5E068B1
:10180000012800D112E033E1E068B8B10120C8F846
:101810000000FFF7C3FB064605E000BFFFF7BEFB75
:10182000801B0228C0D828688007F7D5286821695E
:1018300020F0F80040EAC10028600DE0C8F800A0E0
:10184000FFF7ACFB064604E0FFF7A8FB801B02286D
:101850001FD828688007F7D42078000722D5864F44
:1018600087486169703771B101210160FFF796FB0C
:10187000064604E0FFF792FB801B022809D838686F
:101880008007F7D50EE0C0F800A0FFF787FB0646FB
:1018900005E082E0FFF782FB801B02287DD83868D4
:1018A0008007F7D42078400768D5DFF8CCB100274F
:1018B0000BF13C0BDBF80000C0000BD4DBF8001090
:1018C00041F08051CBF80010DBF80000012700F058
:1018D000805000906B4E3068C00510D4306840F4E2
:1018E00080703060FFF75AFB009005E0FFF756FB71
:1018F0000099401A022850D83068C005F6D55E4ECF
:10190000A0686C3601280FD00528306810D020F070
:1019100001003060306820F004003060A068B8B189
:10192000FFF73CFB00900FE0306840F00100F4E767
:1019300040F004003060F7E7FFF730FB0099411AF0
:1019400041F28830814266D830688007F4D50EE0D5
:10195000FFF724FB009007E0FFF720FB0099411AF6
:1019600041F28830814256D830688007F4D42FB1D4
:10197000DBF8001021F08051CBF80010A069C8B34B
:101980003D49091D0968C1F3810102294AD0022895
:10199000504607D0C8F8600000E03CE0FFF7FEFAD0
:1019A00004463BE04746C8F86000FFF7F7FA0646F2
:1019B00005E000BFFFF7F2FA801B02282BD8286849
:1019C0008001F7D4D4E907010843A16A2E4A4908E7
:1019D00002EB0141626A41EA8211084394F82C103B
:1019E00040EA0161C9F8001001203866FFF7D6FA15
:1019F000044606E03EE000BFFFF7D0FA001B0228D5
:101A000009D828688001F7D534E000BFFFF7C6FA8F
:101A1000001B022802D90320BDE8F88F2868800146
:101A2000F4D427E00128F7D0D9F80000E26900F4E7
:101A3000800191421CD1226A00F03F01914217D1EE
:101A400047F6C071626A0140B1EB821F10D1A26AF1
:101A50004FF0FF3300F4403103EB5202B1EB024F81
:101A600006D194F82C1000F07060B0EB016F01D03B
:101A70000120D1E70020CFE70438024000004742B0
:101A8000800E4742007000400000FFFF10B5401E6E
:101A9000B0F1807F01D3012010BD4FF0E0246061E0
:101AA0000F21601701F08BFD0020A061072020614D
:101AB000002010BD10B590F83C20012A22D0012250
:101AC00080F83C20CA688C6822F4407222434C683B
:101AD00022F4806222430C6822F4006222430C69E3
:101AE00022F4805222434C6922F400522243C969F5
:101AF000002322F480420A4301684A6480F83C30A3
:101B0000002010BD022010BD70B590F83C20012AC5
:101B100032D0012480F83C40022280F83D20036846
:101B20005A689D6822F070060A6832435A60134B67
:101B300002689A4214D0B2F1804F11D0104B9A42F1
:101B40000ED0104B9A420BD00F4B9A4208D00F4B3D
:101B50009A4205D00E4B9A4202D00E4B9A4204D1C3
:101B6000496825F080031943916080F83D400021C9
:101B700080F83C10084670BD022070BD0000014096
:101B80000004004000080040000C00400004014038
:101B900000400140001800402DE9F0410D460400CE
:101BA00003D094F83D0018B108E00120BDE8F081B1
:101BB000002084F83C00204600F040F8022084F821
:101BC0003D002068816844F2070291438160211D35
:101BD000206801F0C5FA226890689169166A2B683E
:101BE000AF69034340F20330814341EA0721A8680B
:101BF000EF6908434FF6FC418843E96840EA072053
:101C0000014328692F6A000140EA073008436968E8
:101C10006D6926F0AA0646EA0515294393602268F5
:101C2000906154F8460B0162012004F81F09E07529
:101C30002076E0762077A0750020B7E770B586B0F3
:101C4000044614216846FEF799FC2A4923680024BB
:101C5000284A103902252848B3F1804F1ED0274E5C
:101C6000B34219D1136843F008031360126802F0FD
:101C7000080205920A6842F001020A60096801F050
:101C80000101059103210091CDE901546946CDE997
:101C9000034500BFFFF780F806B070BD136843F03E
:101CA00001031360126802F0010205920A6842F013
:101CB00001020A600A6802F0010205920A6842F015
:101CC00002020A600968012601F0020105914FF441
:101CD00000410091CDE90154CDE903466946FFF783
:101CE0005BF808200090CDE90154CDE90346694630
:101CF0000348CFE74038024000000240000C00409B
:101D00000004024070B590F83E60044690F83F50E1
:101D100090F8423090F84320022021B104290ED0DF
:101D2000012E1BD114E0012E18D1012B16D184F8FD
:101D30003E0084F8420001220021206820E0012DAD
:101D40000CD1012A0AD184F83F0084F8430014E042
:101D5000012D03D1012B01D1012A01D0012070BD39
:101D600084F83E0084F83F0084F8420084F8430081
:101D700001220021206801F05FFA0122042120687D
:101D800001F05AFA2068016841F001010160002069
:101D900070BD000030B587B0044614216846FEF7D8
:101DA000EDFB28482268002527490224824210D1F1
:101DB000086840F001000860086800F00100059024
:101DC000C8148DE831000120CDE9035069461F4851
:101DD00021E01F4B1F489A4221D10A6842F00202BB
:101DE0000A600A6802F0020205920A6842F00402E0
:101DF0000A60096801F00401059103218DE83200B1
:101E0000CDE903546946FEF7C7FFC0208DE83100D5
:101E10006946114812E0FEF7BFFF07B030BD0F4B17
:101E20009A42FAD10A6842F002020A60096801F097
:101E30000201059159158DE832006946CDE9035438
:101E4000E9E7000000000140303802400000024095
:101E50000004004000040240000802400008004066
:101E600070B5044690F83C0000260D4601280FD0BE
:101E7000012084F83C006AB1042A1DD0082A2FD022
:101E80000C2A3FD00126002084F83C00304670BD6B
:101E9000022070BD206801F0DDF92068816941F001
:101EA000080181612068816921F004018161206855
:101EB00081692A69114311E0206801F0FBF920686B
:101EC000816941F4006181612068816921F4806148
:101ED0008161206881692A6941EA02218161D2E732
:101EE000206801F01DFA2068C16941F00801C16154
:101EF0002068C16921F00401C1612068C1692A69B3
:101F0000114311E0206801F03FFA2068C16941F4F3
:101F10000061C1612068C16921F48061C1612068EC
:101F2000C1692A6941EA0221C161ACE710B5040028
:101F300003D094F83D0010B107E0012010BD00204F
:101F400084F83C00204600F01FF8022084F83D0091
:101F5000211D206801F004F9012084F8460084F86E
:101F60003E0084F83F0084F8400084F8410084F883
:101F7000420084F8430084F8440084F8450084F863
:101F80003D00002010BD000008B5016812488142E4
:101F900008D11248016841F001010160006800F0B9
:101FA00001000BE00D480E4A001F914208D1016864
:101FB00041F002010160006800F00200009008BDDD
:101FC000084A9142FBD1016841F0040101600068B8
:101FD00000F00400F2E70000000001404438024035
:101FE000000400400008004010B50446022249B138
:101FF00004290ED0082913D094F84100012816D0E6
:10200000012010BD94F83E000128F9D184F83E204B
:102010000FE094F83F000128F2D184F83F2008E057
:1020200094F840000128EBD184F8402001E084F8C6
:1020300041200122206801F0FFF816492068164A65
:10204000884201D0904203D1436C43F4004343647F
:102050002068884213D0B0F1804F10D00F498842D9
:102060000DD00F4988420AD00E49884207D09042CD
:1020700005D00D49884202D00C49884204D18168BC
:1020800001F00701062903D0016841F00101016058
:10209000002010BD00000140000401400004004089
:1020A00000080040000C00400040014000180040C3
:1020B00070B5040004D094F84100002510B106E08A
:1020C000012070BD84F84050204600F023F8242001
:1020D00084F841002068C16821F40051C1602046A5
:1020E00001F0E6F92068016921F49041016120685E
:1020F000416921F02A0141612068C16841F4005121
:10210000C1606564202084F8410084F84200656362
:10211000002070BD10B586B0044614216846FEF755
:102120002DFA14492068884221D113480021026801
:1021300042F400220260006800F4002005900E487E
:102140001038026842F004020260006800F00400E7
:1021500005904FF4406000900220CDE9010103207A
:1021600003900820049069460448FEF715FE06B067
:1021700010BD0000004C0040403802400008024002
:10218000FEE701684A69D24352050FD46FF48062BA
:102190004A61002140F8301F202242738173026996
:1021A00042F0040202610173012070470020704771
:1021B000F8B50446C06A1E460D461746082807D0E3
:1021C000012805D010F5803F02D0206B122804D1E1
:1021D0002068016841F480710160134600224FF0CD
:1021E00001112046009600F05DF840B120680068BB
:1021F000C00502D54FF4007020640320F8BD2069AB
:10220000B0F5804F0ED00620216800EAD51040F0CE
:10221000F000086133463A460B49204600F08AF840
:1022200078B902E005F0FE0000E0E8B2216808613C
:10223000054933463A46891F204600F07BF80028BE
:10224000DCD00120F8BD00000800010070B5164682
:102250000D4604461EE02046FFF793FF08B101201B
:1022600070BD681C16D0FEF799FE801BA84200D8EE
:1022700085B920684069C04340070BD5002044F869
:10228000300F20216173A073216941F02001216189
:102290002073E4E720684069C0434007DBD4002096
:1022A00070BD00002DE9F047984617460D460446DC
:1022B000C1F30746DDF820902AE000BFB8F1FF3FE8
:1022C00026D0FEF76BFEA0EB0901414502D8B8F11C
:1022D000000F1DD12068012E16D0806925EA00006C
:1022E0000004000C12D00020B84211D1002044F8A4
:1022F000300F20216173A073216941F02001216119
:1023000020730120BDE8F0874069E7E70120EBE793
:102310002068012E0AD0806925EA00000004000C24
:1023200006D00020B842C9D00020EBE74069F3E7AF
:102330000120F7E72DE9F047984616460D4604467A
:102340004FF000094FF0200AC1F3074723E020684F
:102350004069C043400515D42068016841F400710C
:10236000016021686FF480604861C4F8309084F89F
:102370003DA084F83E90216C41F00401216484F872
:102380003C9021E0701C06D0FEF708FEA0EB080090
:10239000B04203D816B1012F1FD021E02068012FD1
:1023A00015D0806925EA00000004000C18D000BF99
:1023B00044F8309F84F80DA084F80E90216941F014
:1023C0002001216184F80C900120BDE8F08740696C
:1023D00025EA00000004000CEAD12068406901E011
:1023E0002068806925EA00000004000CAFD1ECE70A
:1023F00070B516460D4604461EE02046FFF7C1FEA6
:1024000008B1012070BD681C16D0FEF7C7FD801B07
:10241000A84200D885B920684069C04300060BD5A2
:10242000002044F8300F20216173A073216941F02E
:10243000200121612073E4E720684069C043000661
:10244000DBD4002070BD000038B500F035FC01225F
:1024500051033B48FEF79DFD00F0F3FB05210846C4
:1024600000F024FC0122374937A000F029FD00F0DC
:102470003BFD40F226242046FEF77CFC0820354D2B
:1024800000902B460C223449344800F0C5FB3349F8
:1024900000202B4648750420009030480C2230491B
:1024A000283000F0B9FB2D490120283148752B4810
:1024B00000F0C1FB2948283000F0BDFB00F0C1FB53
:1024C0000521084600F0F2FB01221E4925A000F07C
:1024D000F7FC00F009FD2046FEF74CFC3C212448A7
:1024E000FFF710FC3C212348FFF70CFC00F0A9FB90
:1024F0000521084600F0DAFB012212491EA000F077
:10250000DFFC00F0F1FC2046FEF734FC00F0A0FDFB
:1025100000F097FB0521084600F0C8FB012209499D
:1025200018A000F0CDFC00F0DFFC2046FEF722FCF6
:10253000BDE83840094805221549503000F0B4BACA
:102540000008024090000020576F6B652075702EC8
:102550002E2E000000000240AC040020C800002025
:10256000D40300204D4F54205245414459000000EF
:102570001C040020F4040020454E432052454144F1
:102580005900000053454E534520524541445900DF
:10259000400000207FB50021254800910191029163
:1025A000224A0391026001244FF480320461C0E9A1
:1025B0000121017680F820101E4AC0E90A21042575
:1025C000C561C16080F830104461FEF786FA08B139
:1025D000FEF7D7F9CDE90054032469461448029464
:1025E000FEF7D2F908B1FEF7CCF9052000900220E1
:1025F000019069460E48FEF7C7F908B1FEF7C1F928
:102600000620CDE9000469460948FEF7BDF908B186
:10261000FEF7B7F90720CDE9000569460448FEF743
:10262000B3F9002801D0FEF7ACF97FBD00200140CE
:10263000380300200100000FF0B587B01421684670
:10264000FDF79CFF25480024016841F0040101606A
:10265000016801F004010591016841F00101016088
:10266000016801F001010591016841F0020101607A
:10267000016801F002010591016841F00801016063
:102680000068174E00F008004FF400550590002236
:1026900029463046FEF77DFC124F00220C213846B9
:1026A000FEF777FC00950125CDE9015469463046D7
:1026B0000394FEF771FB0C200090CDE901546946AC
:1026C00038460394FEF768FBA802CDE9000469468A
:1026D00005480294FEF760FB07B0F0BD30380240B9
:1026E0000008024000000240000C02400D4810B5F6
:1026F0000B4901600C49416000214FF48042816028
:10270000C0E9031241618161C1610162FEF74CFCC5
:10271000002803D0BDE81040FEF733B910BD00001B
:102720000054004080030020801A060010B592B0CB
:1027300000240F941C2108A81094FDF71FFF2021EE
:102740006846FDF71BFF1F481D49C0E900144FF6FE
:10275000FF71C0E90241046144618461FFF7E6FB57
:1027600008B1FEF70EF90F940FA916481094FFF761
:10277000CBF908B1FEF705F96020CDE908040A9409
:102780000C940D940C2208A90E480E94FFF768FBD8
:1027900008B1FEF7F6F800944FF40050CDE904407C
:1027A000029401940394694606480794FFF782F95E
:1027B00008B1FEF7E6F80348FFF7ECFA12B010BDD7
:1027C00000000140D403002010B58CB024216846DD
:1027D000FDF7D4FE0024144809944FF080410A9478
:1027E000C0E90014611EC0E9024104618461012056
:1027F000CDE90004CDE902040494CDE90540079435
:10280000694609480894FFF7C7F908B1FEF7B9F817
:10281000099409A904480A94FFF776F9002801D021
:10282000FEF7AFF80CB010BD1C04002010B58AB044
:10283000002407941C2168460894FDF79FFE224857
:102840002049C0E900144FF6FF71C0E9024104615C
:102850008461FFF76BFB08B1FEF793F8079407A9B3
:1028600019480894FFF750F908B1FEF78AF860207C
:10287000CDE9000402940022694613480494FFF74E
:10288000EFFA08B1FEF77DF8042269460E48FFF71B
:10289000E7FA08B1FEF775F8082269460A48FFF71B
:1028A000DFFA08B1FEF76DF80C2269460648FFF71B
:1028B000D7FA08B1FEF765F80348FFF76BFA0AB0DC
:1028C00010BD0000000400406404002010B58AB070
:1028D000002407941C2168460894FDF74FFE164813
:1028E0001449C0E900144FF6FF71C0E902410461C8
:1028F0008461FFF71BFB08B1FEF743F8079407A9B3
:102900000D480894FFF700F908B1FEF73AF8602087
:10291000CDE9000402940C22694607480494FFF7AD
:102920009FFA08B1FEF72DF80348FFF733FA0AB013
:1029300010BD000000080040AC04002010B58CB0B1
:1029400024216846FDF71AFE00241548099413490E
:102950000A94C0E90014611EC0E902410461846167
:102960000120CDE90004CDE902040494CDE905403D
:10297000079469460A480894FFF70EF908B1FEF774
:1029800000F8099409A906480A94FFF7BDF8002841
:1029900001D0FDF7F6FF0CB010BD0000000C0040A8
:1029A000F40400200C4810B50A4901604FF4E131ED
:1029B0004160002181600C22C160C0E90412816184
:1029C000C161FFF775FB002803D0BDE81040FDF79B
:1029D000D8BF10BD004C00403C05002010B500F0F1
:1029E00030F90021084600F061F90122034904A0F2
:1029F00000F066FABDE8104000F076BA90000020C2
:102A00004D617A652052756E0000000010B500F02F
:102A100018F90021084600F049F90122034904A0F1
:102A200000F04EFABDE8104000F05EBA90000020C1
:102A30004D617A652053656172636800FEE70000AE
:102A400010B5062818D2DFE800F01703070B0F13A4
:102A5000BDE81040FFF7DABFBDE81040FFF7BEBF8A
:102A6000BDE81040FDF726BFBDE8104000F00EBBEA
:102A7000BDE8104000F0B0BC00F0E3F800210846CB
:102A800000F014F90122044904A000F019FABDE88D
:102A9000104000F029BA0000900000204E6F206125
:102AA0006374696F6E000000016002710021417162
:102AB000816001737047000030B50F4A9378194464
:102AC00049B200239170052907DB41790479491C3B
:102AD000B1FBF4F504FB15110AE011F1050F09DC57
:102AE000447901790C44641E94FBF1F501FB154116
:102AF0004171937030BD0000A800002070B5154DE5
:102B00000024EA78114449B2E970052915DB4179BE
:102B1000026802EB01110B7B53B18B6843B18260F9
:102B2000027902738A680260097B0171447102E0D4
:102B30000879FFF785FFEC7070BD11F1050FFBDC24
:102B400081680029F7D00160017B017144718460C4
:102B50000473F0E7A80000202DE9F041244C05465D
:102B6000002694F9001011B1FFF7A6FF267094F922
:102B7000011019B12846FFF7C1FF667000F061F837
:102B800069794FF00308002651B12879032807D945
:102B9000421E914202D1C01EC6B201E0491ECEB211
:102BA00000243019C7B22879B8421CD904EB84003C
:102BB0004100002000F07AF868790E49B8424FF0E1
:102BC000010201D10CA000E00CA000F079F9286806
:102BD000012200EB07100749006800F071F9641C3E
:102BE000E4B24445DDD3BDE8F04100F07DB900001A
:102BF000A8000020900000203E00000020000000FF
:102C0000044A1379C31A13709379CB1A53709080C6
:102C1000D1807047A800002030B50024039D0460D7
:102C20004460846004730461047500F1180484E84E
:102C30000E00858430BDC1698069FFF7D5B9FEE714
:102C4000704710B5002000F025F8BDE8104000F0F6
:102C50004BB9000070B5802813D2202911D20B4B3C
:102C6000012401F007051E79AC40094BC90800EBAF
:102C7000C1100EB132B101E0012A03D0195CA143A9
:102C8000195470BD195C2143FAE700009800002038
:102C90002801002028B1FF224FF400710248FDF7FF
:102CA00065BC0022F8E7000028010020014A1080DE
:102CB000518070479800002010B500F0C7FC44F622
:102CC0002063012278215448FEF732FA08B100202F
:102CD00010BD40F6C210401EFDD1AE22002178206A
:102CE00000F0BAFC02220021782000F0B5FC10228E
:102CF0000021782000F0B0FCB0220021782000F004
:102D0000ABFCC8220021782000F0A6FC002211466E
:102D1000782000F0A1FC10220021782000F09CFC1B
:102D200040220021782000F097FC812200217820A9
:102D300000F092FCFF220021782000F08DFCA122FF
:102D40000021782000F088FCA6220021782000F0E5
:102D500083FCA8220021782000F07EFC1F220021A5
:102D6000782000F079FCA4220021782000F074FC87
:102D7000D3220021782000F06FFC00221146782039
:102D800000F06AFCD5220021782000F065FCF022DA
:102D90000021782000F060FCD9220021782000F08A
:102DA0005BFC22220021782000F056FCDA22002170
:102DB000782000F051FC02220021782000F04CFC29
:102DC000DB220021782000F047FC2022002178201F
:102DD00000F042FC8D220021782000F03DFC1422FE
:102DE0000021782000F038FCAF220021782000F08C
:102DF00033FC2E220021782000F02EFC0020FFF76B
:102E000049FF00F071F8054800210180418001214F
:102E10004171084610BD000080030020980000208A
:102E20002DE9F047814625480D46924601882A78CB
:102E30001144802905D280464088697808442028BA
:102E400002D30020BDE8F08700262AE0A9F1200186
:102E500011FB00606A68002432F810701DE000BFAA
:102E600007FA04F0000409D5B8F80210B8F8000019
:102E70003144204489B280B252460BE0BAF1000FCF
:102E80001AD00022B8F80210B8F8000031442044EB
:102E900089B280B2FFF7DEFE641C2878A042DFD83A
:102EA000761C6878B042D1D8B8F800102A78484625
:102EB0001144A8F80010C5E70122E3E798000020BC
:102EC00070B515460E46044609E02A463146FFF71E
:102ED000A7FF2178884201D0C8B270BD641C207859
:102EE0000028F2D1C0B270BD70B50F4D002400BFF4
:102EF00044F0B0020021782000F0AEFB0022114621
:102F0000782000F0A9FB10220021782000F0A4FB1B
:102F100005EBC41280234021782000F0ADFB641C37
:102F2000E4B2042CE4D370BD28010020704770B5D2
:102F300014460D4600F01AF8288881B20020FDF7EB
:102F4000CFFC2080A88881B20120FDF7C9FC6080F9
:102F5000288981B20220FDF7C3FCA080A88981B234
:102F60000320FDF7BDFCE08070BD00002DE9FF5F90
:102F7000354D8B46012829680AD0C86A0621B0FB66
:102F8000F1F700244FF00108E9464FF0FF3A47E01F
:102F9000CF6AF6E7F4B3002029684863012C41D0DA
:102FA000002128688163022C3ED000212868C1637B
:102FB000032C3BD00021286801642968C1F81480E3
:102FC0002248FDF73BFE002651462048FDF7E0FD74
:102FD0001E48FDF77FFD49F82600761CF6B2042E48
:102FE000F2D31A48FDF7A8FE14B3012C24D0022C0A
:102FF00026D00399CBF80C10296800204863296873
:1030000088632968C863296808642968C1F814803E
:10301000641C00E004E0E4B2042CBBD3BDE8FF9FD5
:103020003846B9E73946BCE73946BFE73946C2E713
:103030000099CBF80010DFE70199CBF80410DBE72B
:103040000299CBF80810D7E7640400203803002069
:1030500010B500210C48FEF7C7FF04210A48FEF70F
:10306000C3FF08210848FEF7BFFF0C210648FEF702
:10307000BBFF054800210268516302689163026842
:10308000D1630068016410BD6404002010B5FFF72F
:10309000D8FD00210846FFF709FE0122034904A0DC
:1030A000FFF70EFFBDE81040FFF71EBF90000020A5
:1030B0005365742050494400FEF7BAB930B593B057
:1030C00030216846FDF75AFA14210CA8FDF756FA8C
:1030D0001D480025016841F080510160006800F042
:1030E000805011901948016841F4804101600068E6
:1030F000022400F4804011900120039010200490DD
:10310000009406940820CDE90750A820CDE90904D1
:1031100004200B906846FEF703FB08B172B6FEE789
:103120000CA90F2081E831004FF4A0500F904FF40C
:103130008050109005210CA8FEF706FA002801D057
:1031400072B6FEE713B030BD403802400070004058
:103150000248016841F470010160704788ED00E0A9
:10316000F0B50268294C2A4D2A4E2B4F2B4B4FF0BD
:10317000804CA04209D0604507D0A84205D0B0429B
:1031800003D0B84201D0984204D122F0700E4A68B0
:1031900042EA0E02A0421BD0604519D0A84217D0C7
:1031A000B04215D0B84213D0984211D01C4DA8425D
:1031B0000ED01C4DA8420BD01B4DA84208D01B4D71
:1031C000A84205D01A4DA84202D01A4DA84203D1F8
:1031D00022F44075CA682A434D6922F080022A43CE
:1031E00002608A68C2620A688262A04201D0984284
:1031F00001D109690163012141610169C90703D056
:10320000016921F001010161F0BD000000000140F1
:103210000004004000080040000C00400004014091
:1032200000400140004401400048014000180040B7
:10323000001C00400020004010B501F01F030121D8
:10324000046A99408C430462016A9A401143016206
:1032500010BD0000F0B5036A026A22F001020262AA
:1032600042688469124E24F073050C682C4323F0E5
:1032700002058B682B430D4DA84201D0B04205D109
:1032800023F00807CB683B4323F00403A84201D096
:10329000B04205D14D6922F4407215438A692A4330
:1032A00042608461496841630362F0BD00000140EF
:1032B00000040140F0B5026A036A23F010030362C0
:1032C000436884690D6824F4E64444EA05248D6863
:1032D00022F0200242EA05120F4D104EA84201D002
:1032E000B04206D1CF6822F0800242EA071222F0F3
:1032F0004002A84201D0B04207D14D6923F4406397
:1033000043EA85038D6943EA850343608461496824
:1033100081630262F0BD0000000001400004014032
:10332000F0B5026A036A23F4807303624368C469D8
:1033300022F4007224F073050C68124E2C438D6841
:1033400042EA05220E4DA84201D0B04206D1CF6814
:1033500022F4006242EA072222F48062A84201D0ED
:10336000B04207D14D6923F4405343EA05138D69F8
:1033700043EA05134360C4614968C1630262F0BD5A
:10338000000001400004014030B5046A026A22F4E2
:10339000805202624268C3690D6823F4E64343EA3F
:1033A00005238D6824F4005444EA0534084DA842EE
:1033B00002D0084DA84204D14D6922F4804242EA6D
:1033C00085124260C36149680164046230BD000037
:1033D000000001400004014070B58CB0FFF731FCE3
:1033E00000210846FFF762FC0122214921A0FFF7D6
:1033F00067FDFFF779FD4FF44870FDF7BBFCFFF761
:1034000020FC204C204E4FF480651E4A1F490020AE
:10341000FFF78DFDFFF715FC00210846FFF746FC7E
:103420006088009023881AA2282101A8FCF798FF41
:1034300001220F4901A8FFF743FD10210020FFF7EB
:1034400035FCE0880090A38815A2282101A8FCF78C
:1034500087FF0122064901A8FFF732FDFFF744FD6F
:1034600029463046FDF790FD0028CED10CB070BD46
:103470009000002053656E736F7220546573742E34
:103480002E2E0000B0000020000C02402803002077
:103490004C3A256C7520204C463A256C750000008E
:1034A00052463A256C752020523A256C7500000072
:1034B00070B5044600680169E26821F44051114387
:1034C00001612169A068E269084361691143084309
:1034D0002168CA6849F20C639A430243CA602068B3
:1034E0004169A26921F44071114341613149206869
:1034F000884202D03049884202D1FEF7CFF801E07D
:10350000FEF7BCF8E2690023192164253226B2F5E2
:10351000004F626828D0A0FB0101930F9200FCF7D6
:10352000A7FE0146B0FBF5F06FF01802504301EB27
:10353000800006EB0010B0FBF5F000F0F002B1FBEC
:10354000F5F002EB0012B1FBF5F06FF018035843F1
:1035500001EB800006EB0010B0FBF5F000F00F006F
:1035600021681044886070BDA0FB010192185B4186
:10357000FCF77EFE0146B0FBF5F00201B1FBF5F071
:103580006FF01803584301EB800006EBC000B0FB5E
:10359000F5F000F0F80002EB4002B1FBF5F0584303
:1035A00001EB800006EBC000B0FBF5F000F0070077
:1035B000D6E700000010014000140140FEE70907B3
:1035C000090E002804DB00F1E02080F800147047A9
:1035D00000F00F0000F1E02080F8141D7047303833
:1035E0000A2801D20120704700207047FDF728FF0C
:1035F000FFF764FDFFF720F8FEF7CCFFFFF776F842
:10360000FFF7E2F8FFF712F9FFF798F9FFF7CAF9A9
:10361000FFF75CF9FFF78AF8FEF716FFFFF711FBDB
:10362000084D4FF080444FF4FA76606A296800B282
:1036300009B2FFF7E5FA0448FFF78EFA3046FDF7C6
:1036400099FBF2E7240C0040180100200148401EBD
:10365000FDD1704790D003001CB502238DF80410F3
:103660000A2100918DF80520014601AA0148FDF7C5
:1036700015FE1CBD8003002070B5C2B000248DF87B
:10368000041001A904E0155D0E19641C7570E4B204
:103690009C42F8D30A2100915B1C01469BB201AA0F
:1036A0000248FDF7FBFD42B070BD00008003002022
:1036B0004FF04070E1EE100A70470000000000007B
:1036C00000000000000000000000000000000010EA
:1036D000001000100010001000100000001000008A
:1036E0000000002800280028000000000000000062
:1036F00000000000000000240024007C002400489A
:10370000007C0048004800000000003800540050D1
:10371000003800140054005400380010000000204D
:103720000054005800300028005400140008000025
:103730000000001000280028001000340048004855
:103740000034000000000010001000100000000015
:103750000000000000000000000000080010002031
:103760000020002000200020002000100008002081
:1037700000100008000800080008000800080010F9
:103780000020001000380010002800000000000099
:103790000000000000000000000000100010007C8D
:1037A00000100010000000000000000000000000F9
:1037B00000000000000000000010001000100000D9
:1037C00000000000000000000038000000000000C1
:1037D00000000000000000000000000000000000E9
:1037E0000010000000000008000800100010001089
:1037F00000100020002000000000003800440044B9
:103800000054004400440044003800000000001050
:1038100000300050001000100010001000100000D8
:10382000000000380044004400040008001000209C
:10383000007C000000000038004400040018000470
:1038400000040044003800000000000800180028B0
:1038500000280048007C0008000800000000007CF0
:1038600000400040007800040004004400380000DC
:103870000000003800440040007800440044004448
:10388000003800000000007C000400080010001058
:103890000020002000200000000000380044004408
:1038A00000380044004400440038000000000038A4
:1038B000004400440044003C000400440038000080
:1038C00000000000000000100000000000000000E8
:1038D00000100000000000000000000000100000C8
:1038E0000000000000100010001000000000000C9C
:1038F000003000400030000C00000000000000001C
:1039000000000000007C0000007C000000000000BF
:1039100000000000000000600018000400180060B3
:1039200000000000000000380044000400080010FF
:103930000010000000100000000000380044004C9F
:103940000054005C004000400038000000000010FF
:103950000028002800280028007C004400440000C3
:103960000000007800440044007800440044004413
:103970000078000000000038004400400040004093
:10398000004000440038000000000070004800447F
:103990000044004400440048007000000000007C27
:1039A00000400040007C004000400040007C0000DF
:1039B0000000007C004000400078004000400040D3
:1039C0000040000000000038004400400040005C5F
:1039D000004400440038000000000044004400445B
:1039E000007C004400440044004400000000003813
:1039F000001000100010001000100010003800002F
:103A0000000000040004000400040004000400445A
:103A100000380000000000440048005000600050E2
:103A20000048004800440000000000400040004002
:103A30000040004000400040007C000000000044C6
:103A4000006C006C0054004400440044004400003A
:103A5000000000440064006400540054004C004C1A
:103A600000440000000000380044004400440044CA
:103A70000044004400380000000000780044004486
:103A80000044007800400040004000000000003882
:103A90000044004400440044004400540038000442
:103AA00000000078004400440044007800480048CA
:103AB00000440000000000380044004000300008CE
:103AC00000040044003800000000007C00100010DA
:103AD0000010001000100010001000000000004452
:103AE0000044004400440044004400440038000006
:103AF0000000004400440044002800280028001072
:103B00000010000000000044004400540054005421
:103B1000006C002800280000000000440028002855
:103B2000001000100028002800440000000000449D
:103B300000440028002800100010001000100000B1
:103B40000000007C0004000800100010002000406D
:103B5000007C000000000018001000100010001091
:103B600000100010001000100018002000200010AD
:103B700000100010001000080008000000000030D5
:103B800000100010001000100010001000100010B5
:103B90000030001000280028004400000000000051
:103BA0000000000000000000000000000000000015
:103BB000000000000000000000FE002000100000D7
:103BC00000000000000000000000000000000000F5
:103BD000000000380044003C0044004C0034000069
:103BE00000000040004000580064004400440064AD
:103BF00000580000000000000000003800440040B1
:103C000000400044003800000000000400040034BC
:103C1000004C00440044004C003400000000000050
:103C2000000000380044007C0040004400380000E0
:103C30000000000C0010007C0010001000100010AC
:103C4000001000000000000000000034004C0044A0
:103C50000044004C0034000400780040004000584C
:103C600000640044004400440044000000000010D0
:103C70000000007000100010001000100010000084
:103C80000000001000000070001000100010001074
:103C90000010001000E000400040004800500060AC
:103CA00000500048004400000000007000100010A8
:103CB00000100010001000100010000000000000B4
:103CC00000000078005400540054005400540000D8
:103CD000000000000000005800640044004400445C
:103CE00000440000000000000000003800440044D0
:103CF00000440044003800000000000000000058AC
:103D0000006400440044006400580040004000008B
:103D100000000034004C00440044004C0034000417
:103D20000004000000000058006400400040004013
:103D30000040000000000000000000380044003097
:103D40000008004400380000000000200020007837
:103D500000200020002000200018000000000000CB
:103D600000000044004400440044004C00340000C3
:103D70000000000000000044004400280028002843
:103D80000010000000000000000000540054005427
:103D9000006C002800280000000000000000004423
:103DA000002800100010002800440000000000005F
:103DB00000000044004400280028001000100010FB
:103DC000006000000000007C00080010002000409F
:103DD000007C0000000000180010001000100020FF
:103DE000002000100010001000180010001000103B
:103DF0000010001000100010001000100010003023
:103E00000010001000100008000800100010001042
:103E100000300000000000000074004C00000000B2
:103E2000000000000000170F140FD10E600E050DEA
:103E30009509B7071606140527045C03D00258023B
:103E4000F4019001190F0A0FF10EB50E1A0E170C9E
:103E5000D109A2088707A906D205DD04A1043D0403
:103E600060041A0F0A0FF80ED30E920ECA0DD10B72
:103E7000230AD208BE07E206F3059B052005CE04FF
:103E8000170F140FD10E600E050D9509B707160612
:103E9000140527045C03D0025802F40190010A00C3
:103EA00014001E00280032003C00460050005A005A
:103EB00064006E00780082008C0096000000000014
:103EC00000000000010203040607080900000000CA
:103ED0000102030453656E736F72204C46000000AC
:103EE00053656E736F7220524600000053656E7307
:103EF0006F72204C0000000053656E736F72205289
:103F000000000000536574204D6178205370656592
:103F100064732F5049440000536561726368204DFB
:103F2000617A650052756E204D617A65000000006F
:103F300043616C6962726174652053656E736F7260
:103F40007300000054657374205574696C6974794A
:103F500000000000743F000800000020C8000000BE
:103F6000C40100083C400008C8000020600B0000AD
:103F7000E0010008EC3E0008030000000000000023
:103F800000000000D43E0008030000000000000014
:103F900000000000E03E00080300000000000000F8
:103FA00000000000F83E00080300000000000000D0
:103FB00000000000183F00080100000000000000A1
:103FC00000000000243F0008020000000000000084
:103FD00000000000303F000800000000000000204A
:103FE00004000000043F000804000000000000007E
:103FF00000000000443F0008050000000000000031
:1040000000000000070A0000BA36000800000000A7
:10401000000000007B14AE47E17A843F00000000FE
:10402000000000000000000000000000010000008F
:0C40300010000000000000000024F4005C
:040000050800018965
:00000001FF
